:1000000080314C28013008007E14803120007F08A8
:10001000A3000B1F47282100101E18282000101EC7
:100020001828220069088A0068080A0080314728D9
:100030002100901E25282000901E252822006708F8
:100040008A0066080A00803147282100911D322865
:100050002000911D322821003B088A003A080A003E
:10006000803147282100901D3F282000901D3F2807
:1000700021003B088A003A080A0080314728210005
:10008000901C47282000901C4728893144212000DB
:100090002308FF007E10090080314E28793084004B
:1000A0008830850021001200E9001200EA001200E9
:1000B000EB001200EC001200ED002000E901EA0163
:1000C000A0308400003085003130883190208031AC
:1000D00020308400013085003E30883190207E1031
:1000E00020008A31492A21004F082000A400210065
:1000F00050082000A500A601A7010030AB00003089
:10010000AA000030A900AF30A8008C315A248031F9
:10011000200027082100E500200026082100E40037
:10012000200025082100E300200024082100E2002F
:1001300062082000DF00210063082000E0002100A9
:1001400064082000E100210065082000E200103072
:10015000E300E237E10CE00CDF0CE30BA9285F08B9
:10016000E40064082100E00062082000DF002100B4
:1001700063082000E000210064082000E100210065
:1001800065082000E2000830E300E237E10CE00CF3
:10019000DF0CE30BC5285F08E40064082100E100E0
:1001A00060082000DF00E00121006108083E890AA4
:1001B0002000DC28DF35E00D890BDA285F082100FC
:1001C000DC00200060082100DD0000302000D000AD
:1001D0003430D100C230D200FF30C0007F30C100C7
:1001E0004730C2000030B0002F30B1004330B200C1
:1001F000210050082000AD0021004F082000AC0075
:100200008931C121803120002C08B3002D08B400B1
:100210002E08B50085319225803120003008C300BA
:100220003108C4003208C5008631462680312000DE
:100230004008D3004108D4004208D5008231FB2297
:100240008031200050082100D900200051082100F1
:10025000DA00200052082100DB0000302000B0004E
:10026000C830B1004230B200210059082000B3006C
:1002700021005A082000B40021005B082000B500CE
:10028000853192258031200030082100E6002000D1
:1002900031082100E700200032082100E80066084C
:1002A0002000A400210067082000A50021006808A4
:1002B0002000A6000030A7000030A8000030A900F0
:1002C0008D313425803103189429210066082000DF
:1002D000A400210067082000A50021006808200074
:1002E000A6008631EF26803120002508B3002408BF
:1002F000B2008731EF27803120003308B700320881
:10030000B6008A31F7228031200036082100E6004D
:10031000200037082100E700200038082100E8000D
:100320002D308B31B2238031210066082000A400DB
:10033000210067082000A500210068082000A60011
:100340008631EF268031200025082100DF002000C3
:1003500024082100DE0039302000B2009030B300C4
:1003600021005F082000B50021005E082000B400D5
:10037000D1308431C424803154308B31B223803168
:10038000210051088B31B2238031210052088B317A
:10039000B22380312E308B31B223803121005308BB
:1003A0008B31B2238031210054088B31B2232100DC
:1003B0005D082000DE0021005C082000DD00080050
:1003C000FF302000C0007F30C1004730C200003045
:1003D000B000C830B1004230B20021004E08200009
:1003E000AD0021004D082000AC008931C1218131D0
:1003F00020002C08B3002D08B4002E08B50085316C
:100400009225813120003008C3003108C400320831
:10041000C500863146268131200040082100DC00DD
:10042000200041082100DD00200042082100DE00FC
:1004300000302000B000C830B1004230B2002100CE
:100440005C082000B30021005D082000B4002100FA
:100450005E082000B50085319225813120003008EA
:100460002100D900200031082100DA0020003208E4
:100470002100DB0059082000A40021005A082000B8
:10048000A50021005B082000A6008631EF268131FF
:10049000200025082100E200200024082100E100BE
:1004A00039302000B2009030B300210062082000F3
:1004B000B500210061082000B400D1308431C4248B
:1004C000813120308B31B223813148308B31B223DE
:1004D0008131210051088B31B22381312100520832
:1004E0008B31B22381312E308B31B2238131210007
:1004F00053088B31B2238131210054088B31B22350
:10050000813121004D082000A40021004E08200068
:10051000A500A601A7010030AB000030AA00003002
:10052000A9006430A8008C315A24813120002708AA
:100530002100E800200026082100E700200025080F
:100540002100E600200024082100E50065082000C5
:10055000D200210066082000D30021006708200097
:10056000D400210068082000D5001030D600D5370F
:10057000D40CD30CD20CD60BB72A5208D70057088C
:100580002100E30065082000D20021006608200059
:10059000D300210067082000D40021006808200053
:1005A000D5000830D600D537D40CD30CD20CD60BDE
:1005B000D32A5208D70057082100E400630820001E
:1005C000D200D30121006408083E890A2000EA2AEB
:1005D000D235D30D890BE82A52082100DF00200014
:1005E00053082100E00060082000D10021005F08CE
:1005F0002000D000080020005008D6005108D70085
:100600005208D8000310570D580DD9005908DC00C6
:100610005308D6005408D7005508D8000310570DCA
:10062000580DD9005908DB005C080319232B5B081F
:100630005C0203182A2B5C03FF3A5B07D6001930D3
:100640005602031C2A2B5308D0005408D100550829
:10065000D20008005B08031908005C085B0203185D
:10066000392B5B03FF3A5C07D6001930560203189A
:1006700008000630D6005608DA00D21BDA17D51B60
:100680005A17D117FF30D005FF30D1050030D20501
:10069000D417FF30D305FF30D4050030D5055B08F3
:1006A0005C020318752B0130D335D40DD50D890BA1
:1006B000542B0130DB025B085C060319702B013000
:1006C000DA025A0807390319702B532B0130D2363E
:1006D000D10CD00C890B672B0130D6005608DC07F3
:1006E0005C085B0603199A2B662B5C085B020318F7
:1006F0009A2B0130D035D10DD20D890B7A2B0130D8
:10070000DC025B085C060319962B0130DA025A08FA
:1007100007390319962B792B0130D536D40CD30C1D
:10072000890B8D2B0130D6005608DB075C085B0671
:10073000031D8C2BDA1FAC2BFF30D006FF30D10607
:10074000FF30D2060130D007003003180130D10746
:10075000003003180130D2075A1FBE2BFF30D306DA
:10076000FF30D406FF30D5060130D3070030031820
:100770000130D407003003180130D507DA015008E2
:10078000D3075108D43D5208D53DD51FD92BFF3092
:10079000D306FF30D406FF30D5060130D307003032
:1007A00003180130D407003003180130D507DA01EF
:1007B000DA0A5308A4005408A5005508A6005C08EE
:1007C000D6005608A7005A08D7005708A8008F314E
:1007D0002A2720002408D0002508D1002608D200AE
:1007E0000800AE2CBE01BE0A0800EC302200EA0070
:1007F0006A082000AD000230AE000030AF00443087
:100800008B318A2303302200EA006A082100BE00EF
:10081000A001A10108000130A0070030A13D003077
:100820002102333003192002031C0800E0302200AB
:10083000EA006A082100EC00ED01EC302200EA0039
:100840006A082000AD000230AE000030AF00443036
:100850008B318A232100A001A10102302200EA008D
:100860006A082100BE00080056302200EA006A082B
:100870002000A9000630AA000030AB0044308A31C5
:10088000D722833122005608EA006A082100C200FC
:1008900022005708EA006A082100C100410822002E
:1008A000EA00EB01210042082200EC00ED016C0897
:1008B000ED00EC016A086C072100CF0022006B08F4
:1008C0006D3D2100D00022005908EA006A0821008D
:1008D000C00022005A08EA006A082100BF003F0851
:1008E0002200EA00EB01210040082200EC00ED01AB
:1008F0006C08ED00EC016A086C072100CD002200B5
:100900006B086D3D2100CE0006302200EA006A0827
:100910002100BE00080080317320833120005E0872
:100920002100A70020005D082100A6008131E02100
:10093000200051082100A500200050082100A4003B
:1009400007302200EA006A082100BE0008000330D8
:100950002200EA006A082100BE00080021003E08CB
:10096000003A0319F22B013A0319F52B033A031944
:10097000342C013A03190B2C053A03198B2C013A3C
:100980000319A72CC32C08002000BF003430B60088
:100990003608BA003308B7003208B600B20A0319A5
:1009A000B30A36088400370885000008B800380804
:1009B000C000400803198D2D253040060319EC2C8A
:1009C0004008B6003F0886008701360881000130E4
:1009D000B6003608BF07CA2CBB013308B70032087F
:1009E000B600B20A0319B30A360884003708850036
:1009F0000008C000003A03198D2D643A0319042D34
:100A00000D3A0319042DCA2C3A0886008701403F8D
:100A1000BD00413FBE000230B6003608BA07BE1F17
:100A20001A2D0330B6003608BB04BD09BE09BD0A45
:100A30000319BE0AC001C00A0530400603193F2D44
:100A40004008B600B701B635B70D2F303607840021
:100A50009030373D8500003FB800013FB9003908AC
:100A60003E02031D352D38083D02031C3F2D013089
:100A7000B6003608C00705304006031D202D3B0890
:100A8000033903194E2D2D30B6003F08860087012B
:100A9000360881000130B6003608BF074008B600AE
:100AA0003608BC00FF30B6003608BC073C0A031904
:100AB000CA2C0A30AC000030AD003C08B600B701CB
:100AC000B635B70D2F30360784009030373D85009E
:100AD000003FA400013FA5003E08A7003D08A60076
:100AE0008C318A24843120002508AF002408AE0010
:100AF0008C312D24843120002C08303EB800380879
:100B0000C0004008B6003F08860087013608810013
:100B10000130B6003608BF07522D3F088600870116
:100B20008101080020003008B6003108B700320803
:100B3000B8000310370D380DB9003908BA003A086B
:100B4000031DA92D0030B0000030B1000030B2000C
:100B500008003308B6003408B7003508B8000310A1
:100B6000370D380DB9003908BF003F08031DBF2DF0
:100B70000030B0000030B1000030B20008003F0883
:100B80007B3EB6003608BA073008B6003108B70019
:100B90003208B8001030B836B70CB60C890BCB2D24
:100BA0003608B9003908BF003308B6003408B7006A
:100BB0003508B8001030B836B70CB60C890BDB2DF1
:100BC0003608B9003908BF068030B6003608BF05C0
:100BD000B117B417FF30B305FF30B4050030B505C9
:100BE0000030BB000030BC000030BD000730B60054
:100BF0003608BE00301C022E3308BB073408BC3D4B
:100C00003508BD3D0130B236B10CB00C890B032E56
:100C10000130B335B40DB50D890B092E0130BE027C
:100C2000031DFA2D0930B6003608BE00301C1E2EFA
:100C30003308BB073408BC3D3508BD3D0130B23632
:100C4000B10CB00C890B1F2E0130BD36BC0CBB0C97
:100C5000890B252E0130BE02031D162E3B08A40071
:100C60003C08A5003D08A6003A08B6003608A700D3
:100C70003F08B7003708A8008F312A272000240832
:100C8000B0002508B1002608B20008002000430883
:100C9000C6004408C7004508C8000310470D480DAA
:100CA000C9004908CE004E08031D5D2E0030C0006B
:100CB0000030C1000030C20008004008C6004108F2
:100CC000C7004208C8000310470D480DC900490875
:100CD000CF004F08031D732E0030C0000030C1004C
:100CE0000030C20008000030CB000030CC000030E3
:100CF000CD0089304F07C6004608CE024308C60023
:100D00004408C7004508C8001030C836C70CC60CD8
:100D1000890B852E4608C9004908CF004008C60047
:100D20004108C7004208C8001030C836C70CC60CBE
:100D3000890B952E4608C9004908CF068030C600A9
:100D40004608CF05C417FF30C305FF30C405003087
:100D5000C505C117FF30C005FF30C1050030C20511
:100D60001830C6004608CA000130CB35CC0DCD0D79
:100D7000890BB52E42084502031DC42E41084402CA
:100D8000031DC42E40084302031CCD2E4008C3029D
:100D90004108C43B4208C53B4B140130C335C40D68
:100DA000C50D890BCE2E0130CA02031DB42E4B088F
:100DB000A4004C08A5004D08A6004E08C600460831
:100DC000A7004F08C7004708A8008F312A27200036
:100DD0002408C0002508C1002608C2000800200021
:100DE0002408A8002508A9002608AA000310290D38
:100DF0002A0DAB002B08B1003108031D082F00306D
:100E0000A7000030A6000030A5000030A4000800B4
:100E10002408A8002508A9002608AA001730AA3629
:100E2000A90CA80C890B0F2F2808AB002B08AC00CD
:100E3000A517FF30A405FF30A5050030A60524083E
:100E4000AD002508AE002608AF00B0018E30B1021B
:100E5000B11F462F3108803A8F3E0318382F0030DB
:100E6000A7000030A6000030A5000030A400080054
:100E70000130B036AF0CAE0CAD0C890B392F013000
:100E8000A8002808B10703195F2F382F1830310246
:100E9000031C5C2F0030A7000030A6000030A50026
:100EA0000030A40008000130AD35AE0DAF0DB00D1F
:100EB000890B542F0130B1023108031D532F2C0828
:100EC00003196D2FAD09AE09AF09B009AD0A0319B9
:100ED000AE0A0319AF0A0319B00A3008A7002F0899
:100EE000A6002E08A5002D08A4000800210048082F
:100EF0002000E500E6016508A4006608A5000330AF
:100F0000A6000030A7008A31802287312000240803
:100F1000023EE7000030253DE800203067078400EE
:100F20009030683D850000086B050319B52F21003E
:100F300048082000E500E6016508A4006608A50051
:100F40000330A6000030A7008A31802287312000BC
:100F50002508850024088400203084079030853DD2
:100F6000013F8A00003F0A00873101302000E50080
:100F700065082100C80705304802031C0800EE017F
:100F8000C801803020006B060319E22F40306B0649
:100F90000319E22F20306B060319E22F10306B0685
:100FA0000319E22F08306B060319E22F04306B0699
:100FB0000319E22F02306B060319E22F6B030319AA
:100FC000E22FE12F20006B36E5006508EB006B088F
:100FD000031D08008030E5006508EB0008002000D4
:100FE000B31F08003209B4003309B500B40A03196D
:100FF000B50A3408B2003508B3000800053008000F
:10102200080008008A3116220800240096140800DD
:101032002400161508002400961508002400110843
:1010420008002000901508002000901108008C3143
:1010520003240800200090110800240095120800C3
:101062002100901108002400161408002100901598
:10107200080023001D121D160800240096161616DD
:101082000800240096121616080088311620013036
:1010920008008831162002300800883116200130FD
:1010A20008008831192000300800883142200530BC
:1010B200080088313E200A30080088313E2009307D
:1010C200080001308A316422080000308A3164222B
:1010D2000800F00070082400910008002200BD10F2
:1010E200BC010E3008002200BD10BC010E30080009
:1010F200553480340134223420342400160E890CF5
:10110200890C0139080022003D1088311C2004306E
:101112000800200097019601213098000800640021
:1011220080010131890B9128003422003D143635AB
:1011320088316A2003300800783021009900980134
:1011420022009601080022003D140314360D883156
:101152006A2005300800200025082100BB0020007D
:1011620024082100BA000800013021009D006030EF
:101172009E009F019B019C0108002000250822007F
:10118200E100200024082200E000080020002508D9
:101192002200E500200024082200E40008002000CC
:1011A20025082200E300200024082200E2000800B3
:1011B200200025082200E700200024082200E60083
:1011C2000800200025082200E9002000240822004F
:1011D200E8000800240094010830950096012730A9
:1011E200920095120800200025082200DF0020004E
:1011F20024082200DE00080022005E085F040319B2
:1012020008005F088A005E080A008931080024008D
:10121200951A080094010830950096012730920033
:101222009516080080302C0099001F30980040303D
:101232009700CF3025009E0508007608F10075085A
:10124200F0007708F8007808F20000308B31622352
:1012520008002200BD1D08007108B8007008B70020
:101262007308BA007208B900BD11080020002A08EC
:10127200A5002908A4002B08AC002C08A600023007
:101282008B31DA2308002000901001302100B807CA
:101292000030B93D00303902053003193802031C11
:1012A20008008831FD202100B801B9010800790841
:1012B200F000FF39031D0030F1000230F20000306F
:1012C200F30089312A2189310030F500F600F70157
:1012D20089311E21043008007908F000FF39031D0E
:1012E2000030F1000130F2000030F30089312A2190
:1012F20089310030F500F600F70189311E210230F4
:1013020008007908F000FF39031D0030F1000230B7
:10131200F2000030F30089312A2189310030F500D2
:10132200F600F70189311E21023008007908F00029
:10133200FF39031D0030F1000130F2000030F300EC
:1013420089312A2189310030F500F600F70189310F
:101352001E21043008002200BD1D080020002508BF
:101362002200B800200024082200B700200027082D
:101372002200BA00200026082200B900BD11080090
:1013820020002C08A4002D08A500A6018E30AF0075
:101392002F08A700A8018F312A2720002408AC00BB
:1013A2002508AD002608AE00080020009E019D0120
:1013B2009F013E309B009A01901021009014123040
:1013C2002000A4000830A5008831F420E03020007D
:1013D2009C0008008831EB2089318D3170258931DC
:1013E20088319D2089318831B52089318931132195
:1013F20089318931D62189318D31EF250800710873
:10140200F3007008F200F336F20CF336F20C7208B5
:101412002C00980070080339F2000530F235FF3EC7
:10142200031D0F2A72359700080023001908F000E7
:1014320020006A08463E860001308700700881005D
:101442000130F0007008EA0708306A020318EA0166
:101452000130F00070082100CA0708007908023E36
:10146200860087010108F0000030F100790886004B
:101472008701403FF200413FF30089312A218A313E
:101482000030F500F600F70189311E210230080014
:101492008931EB218A318D31AC258A31CD30200062
:1014A200A4000E30A5008831F4208A318B170B1767
:1014B2008F318F278A3121006E080319592A87310B
:1014C20076278A31592A2000A500A601A60A220001
:1014D200BD187D2ABD142000A60125080319752A0E
:1014E2002200BB01BB0A7B2A02302000A400240890
:1014F2002200BB008831342020002608080020008A
:10150200A801A901241C892A2608A8072708A93DA1
:101512000130A635A70D890B8A2A0130A536A40C05
:10152200890B8F2A24082504031D832A2908A50074
:101532002808A4000800083021006F020318B72A07
:101542004B084E3E860001308700010823009A00B6
:101552000130F00070082100CB0708304B0203185D
:10156200CB010130F0007008EF07080010120800EC
:101572002000A501A50A2200BD18D42A3D11FF3082
:101582002000A40024082200B60088312B208A31D2
:10159200883131208A3188312E2022003C082000F7
:1015A200A4002408A5002000250808002000AC00A3
:1015B20020002C088E3135268A31003A0319D92AA7
:1015C20020002908A4000130A5002B08A7002A0842
:1015D200A6008931AC218A31883162208A318A3170
:1015E200B9228A31013A031D0800F02A2000BB010A
:1015F200B71F022BB609B709B60A0319B70ABB010E
:10160200BB0A3608A4003708A500A6018E30B9002F
:101612003908A7003B08BA003A08A8008F312A27E8
:1016220020002408B6002508B7002608B8000800E4
:1016320022003D100230FA007A08BC00262B8831C5
:101642004E20080088315220080022002E08FA009D
:101652007A08F9000430203E860001308700413FBD
:101662008A00403F0A008B31023A0319202B013ACB
:101672000319202B232B08002200BD154A2B883189
:101682004E20080088312220033008008831522081
:10169200080022002C08FA007A08F90021088A00C2
:1016A20020080A008B31013A0319472B033A031928
:1016B200402B013A0319402B073A0319432B472BBE
:1016C2000800F4007008710403197A2B7435203E67
:1016D2008600013087007008C03F7108C13F720860
:1016E200F30074082C3E86000130870073088100E5
:1016F20008007435203E8600013087000230C03F6A
:101702000030C13F74082C3E860001308700810101
:1017120008002000B000200030088E3135268B31C1
:10172200003A03198C2B20002D08A4000030A500DC
:101732002F08A7002E08A6008931AC218B3100307A
:101742002000A900AA00AB01893137218B318831F1
:1017520066208B318A31B9228B31013A031D080090
:10176200AB2B2000A50021006F080319B42B101A1F
:10177200BF2B2000250823009A00D72B101220002F
:101782002508A40021004C084E3E86000130870047
:101792002000240881000130A40024082100CC0785
:1017A20008304C020318CC010130EF022100101660
:1017B20008002000A800240825040319F32B28356B
:1017C200203E8600013087002408C03F2508C13F23
:1017D2002608A70028082C3E86000130870027082B
:1017E200810008002835203E860001308700023043
:1017F200C03F0030C13F28082C3E860001308700E0
:1018020081010800883125208C3122003D1C152CD5
:1018120088317E208C31003A0319152C0F302000BC
:10182200A00020082200BB0022003B082000A000EC
:10183200A101A035A10D0030200784009030213D88
:101842008500013F8A00003F0A008C312000A2007F
:1018520022082200BB00080020002C082D040319D6
:10186200552CB101B10AAD1B402C0130AC35AD0D88
:10187200890B372C0130B0003008B107342C2D0809
:101882002F02031D462C2C082E02031C4C2C2C0864
:10189200AE022D08AF3B0130AD36AC0C890B4D2C9E
:1018A2000130B102031D402C2F08AD002E08AC0000
:1018B200080000302000AF000030AE000030AD0064
:1018C2000030AC00241C6D2C2808AC072908AD3D63
:1018D2002A08AE3D2B08AF3D0130A835A90DAA0D4F
:1018E200AB0D890B6E2C0130A736A60CA50CA40CEF
:1018F200890B752C2708260425042404031D632C58
:101902002F08A7002E08A6002D08A5002C08A40069
:1019120008002000A901AA01240825040319BA2CF1
:10192200AB01AB0AA51B9F2C0130A435A50D890B79
:10193200962C0130A8002808AB07932C0130A9355A
:10194200AA0D890BA02C25082702031DAA2C240806
:101952002602031CB12C2408A6022508A73B291441
:101962000130A536A40C890BB22C0130AB02031D49
:101972009F2C2A08A5002908A400080020006A0854
:101982003E3E860001308700810123001D1DD62CBA
:1019920020006A083E3E8600013087008114220042
:1019A20065088A0064080A008C3123009D1CE62C1D
:1019B20020006A083E3E86000130870001152200A1
:1019C20063088A0062080A008C3120006A083E3EE1
:1019D20086000130870001080319F62C22006108F5
:1019E2008A0060080A008C3108008A311622080039
:1019F20088311F208C31FA0022003708860038080F
:101A020087007A0881000130B7070030B83D013005
:101A1200B9020030BA3B39083A040319142D88314F
:101A2200422005300800BD151C2D88315E200800BB
:101A320088315A20080022002C08FA007A08F9009E
:101A420021088A0020080A008D31013A0319192D54
:101A5200033A0319162D013A0319162D073A0319F1
:101A6200192D192D08002000A61F4B2D2409AA00AC
:101A72002509AB002609AC00AA0A0319AB0A03190F
:101A8200AC0A00302A07A40000302B3DA5008030AC
:101A92002C3DA600A91F612D2709AA002809AB0029
:101AA2002909AC00AA0A0319AB0A0319AC0A0030CF
:101AB2002A07A70000302B3DA80080302C3DA9004A
:101AC2008030A6068030A90629082602031D0800D8
:101AD20028082502031D0800270824020800220006
:101AE2008C018D018E01333021008C0070308D000D
:101AF200DF308E00CF3023008E0080308D00133017
:101B02008C0024008D018C018E0121009517250087
:101B12008C018D018E01373026008C00F0308D0053
:101B2200FF308E003F3027008C00F0308D00FF30F8
:101B32008E000D303C00A4000C30A10010303D009E
:101B42009E0012309F0011309C000E30A5000E3016
:101B52003C00A000080088318A208D312100C80194
:101B620080302000A4002408EB002100EE01EE0AE0
:101B7200B401B501B201B301B001B10120001708EF
:101B8200A4002408A8001608A4002408A700280816
:101B920017060319D42D1708A4002408A800160854
:101BA200A4002408A7002808A400A5012408A50071
:101BB200A401003024052100AE00FF3020002505DD
:101BC2002100AF002E08200027042100AE002F08BC
:101BD200AF002F08AD002E08AC00080021009012C3
:101BE200BF302000A4000C30A5008831D9208D31EF
:101BF200210010129C302000A4000A30A500883178
:101C0200E2208D31083023009F0090309D00243067
:101C12009E00CF309B009C0111302000A4000830B0
:101C2200A5008831C7208D313A302000A400083049
:101C3200A5008831D0208D3113302000A400083057
:101C4200A5008831BE202100C901CC01CB0108309A
:101C52002000A60026082100EF002000EA01E90189
:101C62002100CA01901608002000A700A801A80AB6
:101C720022003D197B2E20002708A60026082200FC
:101C8200B600BD103D153D100E302000A6002608FE
:101C92002200BB00F430B4000130B500BD150230A3
:101CA200A0000030A100AC010230A2000030A3006D
:101CB200AD010230A4000030A500AE010230A60042
:101CC2000030A700AF01FE30A8000730A900B00124
:101CD20028302000A4000830A5008831AC208E31C5
:101CE20088312B208E31893108218E31883137207D
:101CF2002000A80120002808080088317E208E31AB
:101D0200003A031D8E2EAB2E883146200800883102
:101D12004A20080088315220080022002F08FA00C9
:101D22007A08F9000630203E860001308700413FE4
:101D32008A00403F0A008E31013A03198B2E033A82
:101D42000319852E013A0319882E073A03198B2E9F
:101D52008B2E080022003D103808FB003708FA00DD
:101D6200B70A0319B80A7A0886007B0887000108B7
:101D720088316A208E3101302200B9020030BA3B2C
:101D820039083A04031DC72E0630C82E0330FC0062
:101D92000030FD007C080800172F01302100AA073F
:101DA2000030AB3D00302B02653003192A02031CC0
:101DB200DF2E0230F4007408EB00232F0830A8074E
:101DC2000030A93D232F0130AA070030AB3D01307E
:101DD2002B022C3003192A02031CF42E0330F400C8
:101DE2007408EB00042F280829040319232F00305C
:101DF2002902053003192802031C042F0430A8020B
:101E02000030A93B232FA801A901232F0130AA07E3
:101E12000030AB3D01302B02913003192A02031C22
:101E2200232FAA01AB01EB01EB0A232F21006B0840
:101E3200013A0319CE2E033A0319E42E013A03198B
:101E4200072F232F2908F1002808F0008A310022E9
:101E52000800200027080319332F2608250424042C
:101E6200031D442F0030A4000030A5000030A6005E
:101E720008000130A9002908A7070130A636A50CE1
:101E8200A40C890B3F2FFE30260503195D2F3A2F34
:101E92000130A9002908A7070130A4070030031860
:101EA2000130A507003003180130A6070130A6361D
:101EB200A50CA40C890B582FFF30260503196A2F95
:101EC200492F0130A7020130A435A50DA60D890BBB
:101ED200652FA51B702F023027020318622F2718C7
:101EE200782FFF30A4057F30A505FF30A60503102B
:101EF200A70C2708A900AA01AB011030A935AA0D29
:101F0200AB0D890B7F2F2908A4042A08A5042B08EE
:101F1200A604280803190800A617080020001708BD
:101F2200A4002408A9001608A4002408A80029086F
:101F320017060319A42F1708A4002408A9001608DD
:101F4200A4002408A8002908A400A5012408A500CB
:101F5200A401003024052100AE00FF302000250539
:101F62002100AF002E08200028042100AE002F0817
:101F7200AF002C092000A40021002D092000A5009B
:101F8200A40A0319A50A21002E0820002407A6008E
:101F920021002F082000253DA70003302702E8304A
:101FA20003192602031C080021002C08E83EAC009D
:101FB20003302D3DAD000130B4070030B53D033094
:101FC2003502E83003193402031CED2FB401B501C8
:101FD2000130B2070030B33D0130B0070030B13DEF
:101FE200003031020A3003193002031C08006E0867
:101FF200031D0800B001B101EE01EE0A08006F34C2
:102002000834A4340834963408347E340E34F93457
:102012000C34843408343D340B34463408344A34A6
:1020220008344E34083452340834563408345A349E
:1020320008345E3408347434083419340B34F134FF
:1020420003344034003400340034003400340034AB
:1020520000340034003400340034003401340034DD
:102062000A34003464340034E8340334103427343E
:0620720025346434003443
:020000040001F9
:06000E00FC3FFF3E9F3F96
:00000001FF
