:1000000080314B28053008007E14803120007F08A5
:10001000A3000B1F46282100101E18282000101EC8
:10002000182822006D088A006C080A0080314628D2
:100030002100901E24282000901E242868088A0091
:1000400067080A00803146282100911D31282000D0
:10005000911D312821003B088A003A080A008031AE
:1000600046282100901D3E282000901D3E2821009A
:100070003B088A003A080A00803146282100901C7B
:1000800046282000901C46288831D32020002308D1
:10009000FF007E10090080314D2800308400883038
:1000A000850021001200EA001200EB001200EC00B3
:1000B0001200ED001200EE002000EA01EB01A0307A
:1000C00084000030850033309731D22780312030D2
:1000D0008400013085004A309731D2277E102000FD
:1000E0008931F229452A973178278031003A03195E
:1000F000232954308B315B23803188319820803123
:10010000200024082100E700200025082100E80045
:10011000200026082100E90067082000B300210024
:1001200068082000B400210069082000B5000030F4
:10013000B000C830B1004230B20085315F25803157
:1001400020003008C0003108C1003208C2008631EA
:10015000BC268031200041082100D7002000400843
:100160002100D60067082000A400210068082000B4
:10017000A500210069082000A6000030A70000307B
:10018000A8000030A9008D311F2580310318F72801
:100190002D308B315B238031210067082000C000A7
:1001A000210068082000C100210069082000C20069
:1001B0008631BC26803120004108CF004008CE00A7
:1001C0008831A520803120004F08D3004E08D2008E
:1001D0008A31A0228031200052082100E70020004F
:1001E00053082100E800200054082100E9000030F5
:1001F0002000B2009830B300210057082000B5005D
:10020000210056082000B400DD30823155228031B3
:1002100021005D088B315B23803121005E088B312A
:100220005B2380312E308B315B23803121005F08CE
:100230008B315B238031210060088B315B2380315F
:1002400020308B315B232100C001C00A08009731A8
:1002500078278031003A0319922948308B315B238B
:10026000803188318B208031200024082100D30088
:10027000200025082100D400200026082100D500F8
:1002800053082000B300210054082000B4002100CE
:1002900055082000B5000030B000C830B100423031
:1002A000B20085315F25803120003008C000310860
:1002B000C1003208C2008631BC26803120004108CE
:1002C0002100D900200040082100D8000030200083
:1002D000B2009830B300210059082000B500210079
:1002E00058082000B400DD308231552280312100D1
:1002F0005D088B315B23803121005E088B315B23ED
:1003000080312E308B315B23803121005F088B31AF
:100310005B238031210060088B315B2380312030EA
:100320008B315B2302302000D80058082100C00028
:100330000800973175278031003A0319312A4E3071
:100340008B315B2380318931D82180312000240812
:100350002100DA00200025082100DB00200026080B
:100360002100DC005A082000B30021005B082000B7
:10037000B40021005C082000B5000030B000C83097
:10038000B1004230B20085315F2580312000300855
:10039000C0003108C1003208C2008631BC2680315D
:1003A000200041082100E600200040082100E5006F
:1003B0005A082000A40021005B082000A5002100AD
:1003C0005C082000A6000030A7000030A800003024
:1003D000A9008D311F2580310318052A2D308B315E
:1003E0005B238031210066082000CF0021006508D2
:1003F0002000CE008831A520803120004F08210048
:10040000E60020004E082100E50000302000B20088
:100410009830B300210066082000B500210065086F
:100420002000B400DD3082315522803121005D088A
:100430008B315B23803121005E088B315B2380315F
:100440002E308B315B23803121005F088B315B23A1
:100450008031210060088B315B23803120308B316B
:100460005B2303302000D80058082100C00008009A
:1004700001302000D80058082100BF0733303F0268
:10048000031C0800BF01C001080021004008003A19
:1004900003197328013A03192729033A03199929E3
:1004A000013A0319382A542A08002000C1003430C8
:1004B000B6003608BA0020003308B7003208B6008C
:1004C000B20A0319B30A3608840037088500000809
:1004D000B8003808C20042080319A02B2530420694
:1004E00003197E2A4208B6004108860087013608B3
:1004F00081000130B6003608C1075B2ABF01C00188
:10050000BC01320884003308850000088831B4201B
:100510008231031CBC2A2000BF01C0010A30200028
:10052000A4000030A5004008A7003F08A6008A31BB
:100530002922823120002508C0002408BF0032088B
:100540008400330885000008D03EB600FF30031851
:100550000030B7003608BF073708C03D0130B2078A
:100560000030B33D3208840033088500000888312C
:10057000B420823103188E2A20003308B7003208D5
:10058000B600B20A0319B30A36088400370885009A
:100590000008C200003A0319A02B643A0319D42AB8
:1005A0000D3A0319D42A5B2A20003A0886008701F5
:1005B000403FBD00413FBE000230B6003608BA07DA
:1005C000BE1FEB2A0330B6003608BC04BD09BE09C5
:1005D000BD0A0319BE0AC201C20A05304206031948
:1005E000102B4208B600B701B635B70D2F303607CD
:1005F00084009030373D8500003FB800013FB900CE
:1006000039083E02031D062B38083D02031C102B3F
:100610000130B6003608C20705304206031DF12A34
:100620003F08400403191C2B3C08033903191C2BF9
:10063000FF30BF07FF30C03D4208B600B701B61B10
:10064000B7033708803AB8004008803A3802031DE3
:100650002B2B3F0836020318382B20004208B60027
:10066000B701B61BB7033608BF023708C03B3B2BA8
:100670002000BF01C0013F0840040319522B203065
:10068000B600410886008701360881000130B600B7
:100690003608C107FF30BF07FF30C03D3F084004A8
:1006A000031D3F2B3C0803390319612B2D30B60085
:1006B000410886008701360881000130B6003608FF
:1006C000C1074208B6003608BB00FF30B600360846
:1006D000BB073B0A03195B2A0A30AC000030AD00AF
:1006E0003B08B600B701B635B70D2F30360784008A
:1006F0009030373D8500003FA400013FA5003E0833
:10070000A7003D08A6008C31032482312000250873
:10071000AF002408AE008B31D623823120002C0894
:10072000303EB8003808C2004208B60041088600D2
:100730008701360881000130B6003608C107652BF5
:100740002000410886008701810108002000500830
:10075000D6005108D7005208D8000310570D580D85
:10076000D9005908DC005308D6005408D7005508B2
:10077000D8000310570D580DD9005908DB005C084C
:100780000319CE2B5B085C020318D52B5C03FF3AE0
:100790005B07D60019305602031CD52B5308D00036
:1007A0005408D1005508D20008005B08031908005E
:1007B0005C085B020318E42B5B03FF3A5C07D6007E
:1007C00019305602031808000630D6005608DA0021
:1007D000D21BDA17D51B5A17D117FF30D005FF30BF
:1007E000D1050030D205D417FF30D305FF30D40532
:1007F0000030D5055B085C020318202C0130D3358E
:10080000D40DD50D890BFF2B0130DB025B085C0694
:1008100003191B2C0130DA025A08073903191B2C63
:10082000FE2B0130D236D10CD00C890B122C0130AA
:10083000D6005608DC075C085B060319452C112C12
:100840005C085B020318452C0130D035D10DD20D68
:10085000890B252C0130DC025B085C060319412C56
:100860000130DA025A0807390319412C242C0130CF
:10087000D536D40CD30C890B382C0130D600560851
:10088000DB075C085B06031D372CDA1F572CFF3093
:10089000D006FF30D106FF30D2060130D00700303D
:1008A00003180130D107003003180130D2075A1F56
:1008B000692CFF30D306FF30D406FF30D506013057
:1008C000D307003003180130D4070030031801307B
:1008D000D507DA015008D3075108D43D5208D53D59
:1008E000D51F842CFF30D306FF30D406FF30D50649
:1008F0000130D307003003180130D407003003184B
:100900000130D507DA01DA0A5308A4005408A5001B
:100910005508A6005C08D6005608A7005A08D7005C
:100920005708A8008F31252720002408D00025086B
:10093000D1002608D2000800492DC401C40A0800CD
:10094000ED30D30053082000AD000230AE0000307F
:10095000AF0044308B31332303302100D3005308E0
:10096000C400A601A70108000130A6070030A73D7A
:1009700000302702333003192602031C0800E03040
:10098000D3005308ED00EE01ED30D30053082000F2
:10099000AD000230AE000030AF0044308B31332365
:1009A0002100A601A7010230D3005308C4000800AB
:1009B0006230D30053082000A9000630AA0000309E
:1009C000AB0044308A318022843122006208210049
:1009D000D3005308C800220063082100D300530845
:1009E000C7004708D300D4014808D500D6015508F0
:1009F000D600D50153085507AA005408563DAB0050
:100A0000220065082100D3005308C60022006608B2
:100A10002100D3005308C5004508D300D40146087F
:100A2000D500D6015508D600D50153085507A800B2
:100A30005408563DA9000630D3005308C4000800EE
:100A40008E313026843120005D082100A300200073
:100A50005E082100A40020005F082100A5008C3161
:100A60003824200050082100A00020005108210057
:100A7000A100200052082100A2000730D300530833
:100A8000C400C301C30A08000330D3005308C400E4
:100A9000080021004408003A03199D2C013A03196B
:100AA000A02C033A0319D82C013A0319B42C053AA7
:100AB0000319202D013A0319442D5E2D0800200052
:100AC0003008B6003108B7003208B8000310370DFF
:100AD000380DB9003908BA003A08031D762D0030E8
:100AE000B0000030B1000030B20008003308B6009A
:100AF0003408B7003508B8000310370D380DB900B9
:100B00003908BF003F08031D8C2D0030B0000030B5
:100B1000B1000030B20008003F087B3EB600360846
:100B2000BA073008B6003108B7003208B8001030F4
:100B3000B836B70CB60C890B982D3608B9003908B1
:100B4000BF003308B6003408B7003508B8001030CD
:100B5000B836B70CB60C890BA82D3608B900390881
:100B6000BF068030B6003608BF05B117B417FF3096
:100B7000B305FF30B4050030B5050030BB000030D0
:100B8000BC000030BD000730B6003608BE00301C87
:100B9000CF2D3308BB073408BC3D3508BD3D0130BF
:100BA000B236B10CB00C890BD02D0130B335B40D79
:100BB000B50D890BD62D0130BE02031DC72D09309E
:100BC000B6003608BE00301CEB2D3308BB073408D6
:100BD000BC3D3508BD3D0130B236B10CB00C890BBF
:100BE000EC2D0130BD36BC0CBB0C890BF22D013055
:100BF000BE02031DE32D3B08A4003C08A5003D08F0
:100C0000A6003A08B6003608A7003F08B700370824
:100C1000A8008F31252720002408B0002508B10046
:100C20002608B200080020004308C6004408C70098
:100C30004508C8000310470D480DC9004908CE00FB
:100C40004E08031D2A2E0030C0000030C1000030C5
:100C5000C20008004008C6004108C7004208C8009A
:100C60000310470D480DC9004908CF004F08031D68
:100C7000402E0030C0000030C1000030C20008002B
:100C80000030CB000030CC000030CD0089304F0761
:100C9000C6004608CE024308C6004408C7004508FF
:100CA000C8001030C836C70CC60C890B522E460837
:100CB000C9004908CF004008C6004108C7004208E3
:100CC000C8001030C836C70CC60C890B622E460807
:100CD000C9004908CF068030C6004608CF05C417B2
:100CE000FF30C305FF30C4050030C505C117FF3014
:100CF000C005FF30C1050030C2051830C6004608E7
:100D0000CA000130CB35CC0DCD0D890B822E4208A7
:100D10004502031D912E41084402031D912E4008F7
:100D20004302031C9A2E4008C3024108C43B4208F8
:100D3000C53B4B140130C335C40DC50D890B9B2E2B
:100D40000130CA02031D812E4B08A4004C08A500E7
:100D50004D08A6004E08C6004608A7004F08C70069
:100D60004708A8008F31252720002408C000250847
:100D7000C1002608C200080020004008C400410845
:100D8000C5004208C6000310450D460DC7004708C0
:100D9000CD004D08031DD52E0030C3000030C20029
:100DA0000030C1000030C00008004008C400410805
:100DB000C5004208C6001730C636C50CC40C890BE6
:100DC000DC2E4408C7004708C800C117FF30C00523
:100DD000FF30C1050030C2054008C9004108CA0003
:100DE0004208CB00CC018E30CD02CD1F132F4D0811
:100DF000803A8F3E0318052F0030C3000030C20038
:100E00000030C1000030C00008000130CC36CB0CEF
:100E1000CA0CC90C890B062F0130C4004408CD0749
:100E200003192C2F052F18304D02031C292F0030D9
:100E3000C3000030C2000030C1000030C000080014
:100E40000130C935CA0DCB0DCC0D890B212F0130D6
:100E5000CD024D08031D202F480803193A2FC90958
:100E6000CA09CB09CC09C90A0319CA0A0319CB0A52
:100E70000319CC0A4C08C3004B08C2004A08C10041
:100E80004908C000080021004E082000E300E401EA
:100E90006308A4006408A5000330A6000030A70082
:100EA0008A312922873120002408023EE5000030E3
:100EB000253DE6002030650784009030663D8500C2
:100EC000000869050319872F21004E082000E30060
:100ED000E4016308A4006408A5000330A600003004
:100EE000A7008A312922873120002508850024089F
:100EF0008400203084079030853D003F2300A60009
:100F0000013FA70027088A0026080A008731013020
:100F10002000E30063082100CE0705304E02031CC9
:100F200008002200EE012100CE0180302000690679
:100F30000319B62F403069060319B62F2030690611
:100F40000319B62F103069060319B62F0830690649
:100F50000319B62F043069060319B62F023069064B
:100F60000319B62F69030319B62FB52F2000693670
:100F7000E3006308E9006908031D08008030E3000E
:100F80006308E900080022008C018D018E013330D6
:100F900021008C0070308D00DF308E00CF302300B8
:100FA0008E0080308D0013308C0024008D018C0168
:100FB0008E012100951725008C018D018E0137309F
:100FC00026008C00F0308D00FF308E003F3027006F
:100FD0008C00F0308D00FF308E000D303C00A400FE
:100FE0000C30A10010303D009E0012309F001130E7
:100FF0009C000E30A5000E303C00A0000800080048
:1010000055348034013422342034013021009D00D5
:1010100040309E009F019B019C0108002000250894
:101020002300A100200024082300A00008002000C5
:1010300025082300A500200024082300A4000800A0
:10104000200025082300A300200024082300A2007C
:101050000800200025082200ED00200024082200BE
:10106000EC00080024009401083095009601273018
:10107000920095120800200025082200EB002000B5
:1010800024082200EA00080022006A086B04031901
:1010900008006B088A006A080A00883108002400EA
:1010A000951A0800940108309500960127309200A7
:1010B0009516080080302C0099001F3098004030B1
:1010C0009700CF3025009E0508007608F1007508CE
:1010D000F0007708F8007808F20000308B310B231D
:1010E00008002200BD1D08007108B8007008B70094
:1010F0007308BA007208B900BD11080020002A0860
:10110000A5002908A4002B08AC002C08A60002307A
:101110008B3183230800210020082000A400210037
:1011200021082000A500210022082000A6000800B8
:10113000210023082000A400210024082000A5008D
:10114000210025082000A60008002000CF1F08006D
:101150004E09D0004F09D100D00A0319D10A500816
:10116000CE005108CF0008002000A500A4013A30AD
:1011700025020318C12830302502031CC128A40110
:10118000A40A240C08002000A5002508A400A40D32
:10119000A40D21001D082000240683392406210007
:1011A0009D001D1408002000901001302100B80798
:1011B0000030B93D00303902053003193802031CF4
:1011C0000800883144202100B801B90108007908DD
:1011D000F000FF39031D0030F1000230F200003052
:1011E000F3008831712088310030F500F600F701F6
:1011F00088316520043008007908F000FF39031DAC
:101200000030F1000130F2000030F300883171202D
:1012100088310030F500F600F70188316520023092
:1012200008007908F000FF39031D0030F10002309A
:10123000F2000030F3008831712089310030F50070
:10124000F600F70188316520023008007908F000C7
:10125000FF39031D0030F1000130F2000030F300CF
:101260008831712089310030F500F600F7018831AE
:101270006520043008002200BD1D0800200025085C
:101280002200B800200024082200B7002000270810
:101290002200BA00200026082200B900BD11080073
:1012A00020002C08A4002D08A500A6018E30AF0058
:1012B0002F08A700A8018F31252720002408AC00A3
:1012C0002508AD002608AE00080020009E019D0103
:1012D0009F013E309B009A01901021009014FF3036
:1012E0002000A4000730A50088313B20E03020001A
:1012F0009C0008008831322089318731C327893129
:101300009731DF27893188310520893188315A208A
:1013100089318931652189318D31A1250800710814
:10132000F3007008F200F336F20CF336F20C720898
:101330002C00980070080339F2000530F235FF3EAA
:10134000031D9E2972359700080023001908F0003C
:1013500020006B08463E860001308700700881003F
:101360000130F0007008EB0708306B020318EB0146
:101370000130F00070082100D00708007908023E13
:10138000860087010108F0000030F100790886002E
:101390008701403FF200413FF300883171208931DD
:1013A0000030F500F600F7018831652002300800B2
:1013B000653021003E02031CE4293D302000A700D7
:1013C000CC30A8004130EA29AE302000A700A73079
:1013D000A800C130A9002708A4002808A5002908F2
:1013E000A600080089317A2189318D315B25893148
:1013F000C8302000A4000E30A50088313B20893180
:101400008B170B178F318A27893122006E08031939
:10141000022A873143278931022A2000A500A6012C
:10142000A60A2200BD18262ABD142000A601250800
:1014300003191E2A2200BB01BB0A242A0230200005
:10144000A40024082200BB0097316F272000260843
:1014500008002000A801A901241C322A2608A80798
:101460002708A93D0130A635A70D890B332A013085
:10147000A536A40C890B382A24082504031D2C2A20
:101480002908A5002808A4000800083021006F02E0
:101490000318602A51084E3E86000130870001087B
:1014A00023009A000130F00070082100D1070830B5
:1014B00051020318D1010130F0007008EF07080055
:1014C000101208002000A501A50A2200BD187D2ADF
:1014D0003D11FF302000A40024082200B6009731FF
:1014E00066278A3197316C278A3197316927220024
:1014F0003C082000A4002408A500200025080800BE
:101500002000AC0020002C088D31E7258A31003AFC
:101510000319822A20002908A4000130A5002B0805
:10152000A7002A08A60089313B218A319731A327D9
:101530008A318A3162228A31013A031D0800992AD0
:101540002000D701D31FAB2AD209D309D20A03192D
:10155000D30AD701D70A5208A4005308A500A60150
:101560008E30D5005508A7005708D6005608A800A9
:101570008F31252720002408D2002508D300260813
:10158000D400080022003D100230FA007A08BC00A6
:10159000CF2A97318F270800973193270800220020
:1015A0002E08FA007A08F9000430203E8600013047
:1015B0008700413F8A00403F0A008A31023A0319FE
:1015C000C92A013A0319C92ACC2A08002200BD15EC
:1015D000F32A97318F27080097315A2703300800E4
:1015E00097319327080022002C08FA007A08F900A6
:1015F00021088A0020080A008A31013A0319F02ADA
:10160000033A0319E92A013A0319E92A073A0319A7
:10161000EC2AF02A0800F400700871040319232B47
:101620007435203E8600013087007008C03F710885
:10163000C13F7208F30074082C3E86000130870019
:101640007308810008007435203E86000130870051
:101650004930C03F1730C13F74082C3E860001302E
:101660008700810108002000B000200030088D3183
:10167000E7258B31003A0319352B20002D08A400F3
:101680000030A5002F08A7002E08A60089313B21B5
:101690008B3100302000A900AA00AB0188317E20E8
:1016A0008B319731A7278B318A3162228B31013AF6
:1016B000031D0800542B2000A50021006F0803190A
:1016C0005D2B101A682B2000250823009A00802B20
:1016D000101220002508A400210052084E3E86006A
:1016E000013087002000240881000130A400240874
:1016F0002100D207083052020318D2010130EF0254
:101700002100101608002000A80024082504031951
:101710009C2B2835203E8600013087002408C03FDE
:101720002508C13F2608A70028082C3E8600013066
:1017300087002708810008002835203E86000130F8
:1017400087004930C03F1730C13F28082C3E860033
:10175000013087008101080097315D278B3122001D
:101760003D1CBE2B9731BA278B31003A0319BE2B93
:101770000F302000A00020082200BB0022003B0800
:101780002000A000A101A035A10D00302007840099
:101790009030213D8500013F8A00003F0A008B31D7
:1017A0002000A20022082200BB00080020002C0814
:1017B0002D040319FE2BB101B10AAD1BE92B013039
:1017C000AC35AD0D890BE02B0130B0003008B1070E
:1017D000DD2B2D082F02031DEF2B2C082E02031CDE
:1017E000F52B2C08AE022D08AF3B0130AD36AC0C0A
:1017F000890BF62B0130B102031DE92B2F08AD0038
:101800002E08AC0008002000AA01AB012408250422
:101810000319332CA901A90AA51B182C0130A435E2
:10182000A50D890B0F2C0130A8002808A9070C2C46
:101830000130AA35AB0D890B192C25082702031D91
:10184000232C24082602031C2A2C2408A60225087F
:10185000A73B2A140130A536A40C890B2B2C013090
:10186000A902031D182C2B08A5002A08A4000800B3
:10187000FF302000C0007F30C1004730C200003080
:10188000B000C830B1004230B20021002908200069
:10189000AD00210028082000AC00893150218C3196
:1018A00020002C08B3002D08B4002E08B5008531A7
:1018B0005F258C3120003008C3003108C400320895
:1018C000C5008631132620004008D3004108D4000B
:1018D0004208D5005308D0005408D1005508D20062
:1018E00008009D2C04308831C3208C319731632748
:1018F0002100BE01BE0A08009731EE27200025080E
:101900002200D700200024082200D6002100BC01BC
:10191000BC0A02302000A60026082100BE000800F4
:1019200001302000A60026082100BD0733303D020B
:10193000031C0800BD01BE01080021003E08003A5A
:101940000319722C013A03197C2C033A0319902CC9
:10195000A92C080020006B083E3E8600013087005D
:10196000810123001D1DC12C20006B083E3E860016
:10197000013087008114230025088A0024080A000A
:101980008C3123009D1CD12C20006B083E3E86002C
:10199000013087000115230023088A0022080A006D
:1019A0008C3120006B083E3E860001308700010824
:1019B0000319E12C230021088A0020080A008C3139
:1019C00008008931A5210800973157278C31FA008A
:1019D000220037088600380887007A088100013025
:1019E000B7070030B83D0130B9020030BA3B3908C2
:1019F0003A040319FF2C9731832705300800BD15E1
:101A0000072D97319F27080097319B270800220058
:101A10002C08FA007A08F90021088A0020080A0038
:101A20008D31013A0319042D033A0319012D013AAE
:101A30000319012D073A0319042D042D0800200075
:101A4000A61F362D2409AA002509AB002609AC00E3
:101A5000AA0A0319AB0A0319AC0A00302A07A4002A
:101A600000302B3DA50080302C3DA600A91F4C2D39
:101A70002709AA002809AB002909AC00AA0A031902
:101A8000AB0A0319AC0A00302A07A70000302B3D2F
:101A9000A80080302C3DA9008030A6068030A90621
:101AA00029082602031D080028082502031D080036
:101AB0002708240208009731C6278D312100CE0166
:101AC00080302000A4002408E9002200EE01EE0A84
:101AD0002100B601B7012200DE01DF012100B401BF
:101AE000B50120001708A4002408A8001608A400C7
:101AF0002408A700280817060319862D1708A40034
:101B00002408A8001608A4002408A7002808A40098
:101B1000A5012408A500A401003024052100B2007D
:101B2000FF30200025052100B300320820002704E3
:101B30002100B2003308B3003308B1003208B0000E
:101B4000080021009012AA302000A4000C30A5004B
:101B50009731CC278D312100101245302000A40090
:101B60000A30A500883129208D31083023009F00DC
:101B700090309D0024309E00CF309B009C01483067
:101B80002000A4001730A500883117208D317B304C
:101B90002000A4001730A500883120208D314B3063
:101BA0002000A4001730A50088310E202100CF01AD
:101BB000D201D10108302000A60026082100EF0044
:101BC0002000EB01EA012100D0019016080020005E
:101BD000A700A801A80A22003D192D2E20002708E1
:101BE000A60026082200B600BD103D153D100E309F
:101BF0002000A60026082200BB00F430B40001300B
:101C0000B500BD154930A0001730A100AC01493026
:101C1000A2001730A300AD014930A4001730A50081
:101C2000AE014930A6001730A700AF010230A8006E
:101C30000030A900B00160302000A4001730A500DA
:101C40009731F7278D31973166278D3188314F20B5
:101C50008D31973172272000A80120002808080044
:101C600000302000D0003430D100C230D200FF302C
:101C7000C0007F30C1004730C2000030B0002F30BC
:101C8000B1004330B20021002B082000AD0021003C
:101C90002A082000AC00893150218E3120002C0808
:101CA000B3002D08B4002E08B50085315F258E31B4
:101CB00020003008C3003108C4003208C500863156
:101CC00013268E3120004008D3004108D40042087A
:101CD000D5008331A62320005008E0005108E10020
:101CE0005208E2006008DD006108DE006208DF00E3
:101CF00008009731BA278E31003A031D892EA62E8F
:101D000097318727080097318B2708009731932751
:101D1000080022002F08FA007A08F9000630203E59
:101D2000860001308700413F8A00403F0A008E3123
:101D3000013A0319862E033A0319802E013A03193A
:101D4000832E073A0319862E862E080022003D10A6
:101D50003808FB003708FA00B70A0319B80A7A08EE
:101D600086007B08870001089731AB278E31013050
:101D70002200B9020030BA3B39083A04031DC22ED2
:101D80000630C32E0330FC000030FD007C08080044
:101D9000122F01302100AE070030AF3D00302F027E
:101DA000653003192E02031CDA2E0230F400740889
:101DB000EC001E2F0830AC070030AD3D1E2F013067
:101DC000AE070030AF3D01302F022C3003192E0238
:101DD000031CEF2E0330F4007408EC00FF2E2C08D7
:101DE0002D0403191E2F00302D02053003192C027B
:101DF000031CFF2E0430AC020030AD3B1E2FAC01A3
:101E0000AD011E2F0130AE070030AF3D01302F0273
:101E1000913003192E02031C1E2FAE01AF01EC01FD
:101E2000EC0A1E2F21006C08013A0319C92E033A4F
:101E30000319DF2E013A0319022F1E2F2D08F1007E
:101E40002C08F00089318F21080020002708031991
:101E50002E2F260825042404031D3F2F0030A40044
:101E60000030A5000030A60008000130A9002908B4
:101E7000A7070130A636A50CA40C890B3A2FFE301B
:101E800026050319582F352F0130A9002908A70767
:101E90000130A407003003180130A50700300318F3
:101EA0000130A6070130A636A50CA40C890B532FD0
:101EB000FF3026050319652F442F0130A70201309A
:101EC000A435A50DA60D890B602FA51B6B2F023025
:101ED000270203185D2F2718732FFF30A4057F30CA
:101EE000A505FF30A6050310A70C2708A900AA0125
:101EF000AB011030A935AA0DAB0D890B7A2F29083B
:101F0000A4042A08A5042B08A6042808031908001D
:101F1000A617080020001708A4002408A900160826
:101F2000A4002408A8002908170603199F2F1708E2
:101F3000A4002408A9001608A4002408A800290861
:101F4000A400A5012408A500A40100302405210057
:101F5000B200FF30200025052100B3003208200028
:101F600028042100B2003308B30030092000A40087
:101F7000210031092000A500A40A0319A50A2100A7
:101F8000320820002407A600210033082000253D48
:101F9000A70003302702E83003192602031C0800BB
:101FA00021003008E83EB0000330313DB10001307F
:101FB000B6070030B73D03303702E8300319360268
:101FC000031CE92FB601B70101302200DE07003003
:101FD000DF3D01302100B4070030B53D003035024F
:101FE0000A3003193402031C080022006E08031D86
:101FF00008002100B401B5012200EE01EE0A08003C
:10200000B0341734E6341734D834173479340E34F6
:10201000E4340C34C0341734E6340A3487341734CB
:102020008B3417348F341734933417349734173470
:102030009B3417349F341734B5341734C2340A3400
:102040009C340434803471340C34403472340034A1
:1020500001340034003400340034003400340134DE
:1020600000340A34003464340034E8340334103467
:02207000273413
:102E90000800013008008931A5210800240096149B
:102EA00008002400161508002400961508002400C8
:102EB000110808002000901508002000901108005B
:102EC0008B31AC23080021009D14080020009011D4
:102ED0000800240095120800210090110800240029
:102EE0001614080021009015080021003C08080075
:102EF00021004308080023001D121D1608002400AD
:102F00009616161608002400961216160800973119
:102F10004E270130080097314E27023008009731C4
:102F20004E270130080097315127003008009731B3
:102F300083270530080097317F270A300800973132
:102F40007F270930080001308A310D220800003047
:102F50008A310D220800F00070082400910008005A
:102F60002200BD10BC010E3008002200BD10BC01C3
:102F70000E3008002400160E890C890C0139080057
:102F800022003D109731542704300800200097019B
:102F9000960121309800080020002508E800240848
:102FA000E7000800640080010131890BD32F003451
:102FB00022003D1436359731AB27033008007830B6
:102FC00021009900980122009601080022003D147A
:102FD0000314360D9731AB270530080021001C087B
:102FE0002000A50021001B082000A40008002000EC
:102FF00025082100BB00200024082100BA00080099
:0830000025343434643400343B
:020000040001F9
:06000E00FC3FFF3E9F3F96
:00000001FF
