:1000000080314A28053008007E14803120007F08A6
:10001000FD000B1F45282100101E18282000101E6F
:100020001828210066088A0065080A0080314528E2
:100030002100901E25282000901E252821006408FC
:100040008A0063080A00803145282100911D31286B
:100050002000911D312831088A0030080A008031C3
:1000600045282100901D3D282000901D3D28310885
:100070008A0030080A00803145282100901C45285C
:100080002000901C4528873128277D082000FF008C
:100090007E10090080314C28AD3084008F308500FF
:1000A0001200E5001200E6001200E7001200E8006E
:1000B0001200E900203084000030850028308F31A4
:1000C000D0278031A0308400003085004F308F3140
:1000D000D0278031203084000130850008308F31F6
:1000E000D0277E1020008631892E2D29B401B40A34
:1000F00008006830E0006008D4000230D50000300D
:10010000D60044308431FF24803103302000E000E9
:100110006008B4002100CD01CE01E0302000E000F5
:100120006008E800E9016830E0006008D4000230AF
:10013000D5000030D60044308431FF24080001305F
:100140002100CD070030CE3D00304E02C9300319EA
:100150004D02031C0800CD01CE0102302000E0005A
:100160006008B4000800E730E0006008D000063006
:10017000D1000030D2004430863117268031210072
:1001800067082000E0006008B8002100680820002F
:10019000E0006008B7003708E000E1013808E2003D
:1001A000E3016208E300E20160086207A20061085F
:1001B000633DA30021006A082000E0006008B6004B
:1001C00021006B082000E0006008B5003508E00061
:1001D000E1013608E200E3016208E300E2016008A1
:1001E0006207A0006108633DA1000630E0006008DE
:1001F000B40008008431AA2480312000580821006E
:10020000D400200057082100D30084317E24200030
:1002100058082100D200200057082100D1000730E3
:100220002000E0006008B4000800B401B40A003007
:1002300085316E2580312100530885316E2580314E
:10024000003085316E2580312100510885316E25C1
:1002500080317C3085316E25080020003408003A5A
:1002600003197628013A03197928033A0319B328A8
:10027000013A03199F28053A0319FA28013A03198C
:1002800015294229080020003F082200A800A901E2
:1002900028082000CB00220029082000CC000330D1
:1002A000CD000030CE0086315126813120004B0830
:1002B000023E2200AA00003020004C3D2200AB008C
:1002C0007B302A07840087302B3D85000008200002
:1002D0003E0503198B293F082200A800A901280820
:1002E0002000CB00220029082000CC000330CD00E4
:1002F0000030CE0086315126813120004C08850027
:100300004B0884007B3084078730853D013F8A009D
:10031000003F0A00813101302200A8002808200097
:10032000BF0705303F02031C0800C001BF01803039
:100330003E060319B72940303E060319B72920307D
:100340003E060319B72910303E060319B7290830B5
:100350003E060319B72904303E060319B7290230B7
:100360003E060319B7293E030319B729B629200011
:100370003E362200A80028082000BE003E08031DCB
:10038000080080302200A80028082000BE000800D5
:1003900020001708CB004B08D0001608CB004B08F4
:1003A000CF00500817060319DD291708CB004B08AA
:1003B000D0001608CB004B08CF005008CB00CC0172
:1003C0004B08CC00CB0100304B05AA00FF304C0598
:1003D000AB002A084F04AA002B08AB002809CB0069
:1003E0002909CC00CB0A0319CC0A2A084B07CD00F7
:1003F0002B084C3DCE0003304E02E83003194D026D
:10040000031C08002808E83EA8000330293DA90085
:1004100001302100D9070030DA3D03305A02E830BC
:1004200003195902031C1A2AD901DA010130D7072E
:100430000030D83D0130D5070030D63D003056029F
:100440000A3003195502031C080020004008031D50
:1004500008002100D501D6012000C001C00A080013
:100460007A2A01302000A6070030A73D003027027D
:10047000653003192602031C422A0230F400740876
:10048000E700862A0830A4070030A53D862A0130FF
:10049000A6070030A73D013027022C3003192602A1
:1004A000031C572A0330F4007408E700672A240865
:1004B00025040319862A0030250205300319240279
:1004C000031C672A0430A4020030A53B862AA4013D
:1004D000A501862A0130A6070030A73D013027027A
:1004E000913003192602031C862AA601A701E70101
:1004F000E70A862A20006708013A0319312A033ADD
:100500000319472A013A03196A2A862A2508F100A5
:100510002408F0008631D32608008F31B2278231BB
:10052000003A031D9D2AB92A8F317A2708008F319E
:100530007E2708008F318627080021002F08FA0047
:100540007A08F9000630A03E86008701413F8A0004
:10055000403F0A008231013A03199A2A033A0319EB
:10056000942A013A0319972A073A03199A2A9A2AD0
:10057000080021003C101730A03E86008701403F54
:1005800084008501810A00088F319E278231013065
:100590002100B8020030B93B38083904031DD22AC3
:1005A0000630D32A0330FB000030FC007B08080033
:1005B0002000CE00CF01CF0A21003C191E2B2000C5
:1005C0004E08CD004D082100B600BC103C153C1073
:1005D0000E302000CD004D082100BA00F430B400E8
:1005E0000130B500BC154530A0000F30A100AC01B2
:1005F0004530A2000F30A300AD014530A4000F30FC
:10060000A500AE014530A6000F30A700AF010230B3
:10061000A8000030A900B0015C302000CB000F30F2
:10062000CC008F31C42782318F315F2782318731EF
:10063000BC2782318F316B272000CF0120004F086B
:1006400008002100901218302000CB000430CC00AC
:100650008731EE2783312100101234302000CB0087
:100660000630CC008731E5278331083023009F0016
:1006700090309D0024309E00A0309B0001309C00F3
:1006800043302000CB000F30CC008F31F72783316F
:100690006E302000CB000F30CC008731F72783313C
:1006A00047302000CB000F30CC008F31EE272000E8
:1006B000C101C701C6010830CD004D08C500C40105
:1006C000C301C2012100901608008F31BE2783317B
:1006D0002000BF018030CB004B08BE00C001C00A23
:1006E0002100D901DA01D701D801D501D6012000B6
:1006F0001708CB004B08CF001608CB004B08CE00E4
:100700004F08170603198C2B1708CB004B08CF0096
:100710001608CB004B08CE004F08CB00CC014B088D
:10072000CC00CB0100304B05AA00FF304C05AB00DC
:100730002A084E04AA002B08AB002B08A9002A089F
:10074000A800080022008C018D018E0133302100A9
:100750008C0070308D00DF308E00CF3023008E0093
:1007600080308D0013308C0024008D018C018E01AF
:100770002100951725008C018D018E013730260050
:100780008C00F0308D00FF308E003F3027008C0051
:10079000F0308D00FF308E000D303C00A4000C3096
:1007A000A10010303D009E0012309F0011309C00CF
:1007B0000E30A5000E303C00A00008008F315327FA
:1007C0008331FA0021003708860087017A0881000A
:1007D0000130FA007A08B7070130B8020030B93B9F
:1007E000380839040319F82B8F31762705300800B3
:1007F000BC15002C8F31922708008F318E270800FE
:1008000021002C08FA007A08F90021088A00200843
:100810000A008431013A0319FD2B033A0319FA2B1C
:10082000013A0319FA2B073A0319FD2BFD2B080097
:1008300020004408BD3E86008701810123001D1D64
:100840002D2C20004408BD3E860087018114210024
:1008500062088A0061080A00843123009D1C3C2C38
:1008600020004408BD3E8600870101152100600874
:100870008A005F080A00843120004408BD3E8600DB
:100880008701010803194B2C21005E088A005D08CE
:100890000A00843108008631A426080000302000B8
:1008A000D6000030D5000030D4000030D3004B1CFF
:1008B000612C4F08D3075008D43D5108D53D52084C
:1008C000D63D0130CF35D00DD10DD20D890B622C24
:1008D0000130CE36CD0CCC0CCB0C890B692C4E08DC
:1008E0004D044C044B04031D572C5608CE005508EC
:1008F000CD005408CC005308CB000800200020088D
:10090000CB002108CC00CD01CE010030D200003058
:10091000D1000030D0006430CF0084314E248431C7
:1009200020004E08DF004D08DE004C08DD004B08BB
:10093000DC001030D900DF37DE0CDD0CDC0CD90B0D
:100940009B2C5D08DB005C08DA005B08D8005A08C5
:10095000D700080020002208CB002308CC00CD01DE
:10096000CE010030D2000030D1000030D000AF30D6
:10097000CF0084314E24843120004E08DE004D0823
:10098000DD004C08DC004B08DB001030DE36DD0CEF
:10099000DC0CDB0C890BC62C5C08DA005B08D90088
:1009A0005A08D8005908D70008008F3159278431D8
:1009B00021003C1CE72C8F31B2278431003A031907
:1009C000E72C0F302000C80048082100BA002100A1
:1009D0003A082000C800C901C835C90DD9304807F8
:1009E00084008530493D8500013F8A00003F0A00B0
:1009F00084312000CA004A082100BA000800200003
:100A0000D700200057088231D8228431003A0319D8
:100A1000012D20005608CC005508CB005408873122
:100A20001327843100302000D000D100D20187315B
:100A3000982784318F319A2784318531F925843183
:100A4000013A031D08001D2D2000CF004B084C0467
:100A500003193B2D4F35A03E860087014B08C03F50
:100A60004C08C13F4D08CE004F08AC3E86008701C0
:100A70004E08810008004F35A03E860087014530B2
:100A8000C03F0F30C13F4F08AC3E86008701810157
:100A900008002100BC15562D8F31822708008F31A8
:100AA0005627033008008F318627080021002C08C4
:100AB000FA007A08F90021088A0020080A00853126
:100AC000013A0319532D033A03194C2D013A031926
:100AD0004C2D073A03194F2D532D08002000CC0050
:100AE00045080319702D2100101A7B2D20004C0899
:100AF00023009A008F2D101220004C08CB004708CD
:100B0000C53E860087014B0881000130CB004B08B1
:100B1000C707083047020318C7010130C50221008A
:100B200010160800F400700871040319A82D74351C
:100B3000A03E860087017008C03F7108C13F72085F
:100B4000F3007408AC3E860087017308810008003A
:100B50007435A03E860087014530C03F0F30C13F4D
:100B60007408AC3E860087018101080021003C101A
:100B70000230FA007A08BB00C32D8F3182270800AB
:100B80008F318627080021002E08FA007A08F90024
:100B90000430A03E86008701413F8A00403F0A00A2
:100BA0008531023A0319BD2D013A0319BD2DC02D1F
:100BB0000800A3340F34DD340F34D6340F348D34B1
:100BC0000234DE340334B8340F34493405347A3413
:100BD0000F347E340F3482340F3486340F348A3429
:100BE0000F348E340F3492340F34A8340F34B634AB
:100BF00005342000CC01CC0A2100BC18142E3C1175
:100C0000FF302000CB004B082100B6008F315F275A
:100C100085318F31652785318F31622721003B086F
:100C20002000CB004B08CC0020004C08080020001E
:100C3000D300200053088231D8228631003A0319AC
:100C4000192E20005208CC005108CB0050088731E3
:100C5000132786318F31962786318531F9258631E4
:100C6000013A031D08002D2E08302000450203180C
:100C70004E2E4608C53E86008701010823009A00D3
:100C80000130F00070082000C60708304602031843
:100C9000C6010130F0007008C507080021001012DD
:100CA00008002000CF01D0014B1C5A2E4D08CF0761
:100CB0004E08D03D0130CD35CE0D890B5B2E013075
:100CC000CC36CB0C890B602E4B084C04031D542EE4
:100CD0005008CC004F08CB0008002000CC00CD010C
:100CE000CD0A2100BC18862EBC142000CD014C0872
:100CF00003197E2E2100BA01BA0A842E0230200088
:100D0000CB004B082100BA008F31682720004D0826
:100D100008008631E92686318331652386313030FB
:100D20002000CB000230CC008F31CA2786318B17D0
:100D30000B178131C8218631200040080319992EF4
:100D4000813143218631992E23001908F0002000BB
:100D50004408203E86000130870070088100013081
:100D6000F0007008C407083044020318C4010130C1
:100D7000F0007008C2070800790886008701403F2C
:100D8000F000413FF1007908023E8600870101082A
:100D900087318A2786310030F500F600F701873168
:100DA000A527023008007108F3007008F200F3363E
:100DB000F20CF336F20C72082C009800700803391C
:100DC000F2000530F235FF3E031DE22E723597002A
:100DD00008008731DC2786318331A22386318731B1
:100DE000D22786318F31E52786318731B127863189
:100DF0008631FE26863183312123080020009E01A2
:100E00009D019F017C309B009A019010210090145D
:100E100044302000CB000F30CC008F31CA27E030A7
:100E200020009C0008002000CE002100BC1D08000E
:100E300020004E08CD004D082100B70020004C08CE
:100E40002100B90020004B082100B800BC110800A7
:100E5000200090100130AC070030AD3D00302D0275
:100E6000053003192C02031C08008731C727200016
:100E7000AC01AD0108000130F0000030F10079084C
:100E800087318A2787310030F500F600F701873176
:100E9000A527043008000230F0000030F100790886
:100EA00087318A2787310030F500F600F701873156
:100EB000A527023008000130F0000030F100790869
:100EC00087318A2787310030F500F600F701873136
:100ED000A527023008000230F0000030F100790848
:100EE00087318A2787310030F500F600F701873116
:100EF000A527043008007534003440340034003431
:100F00000034003400340034003400340034003441
:100F100000340034F3002100BC1D08007308F20007
:100F20007208B7007108B9007008B800BC11080059
:100F300020005108CC005008CB005208D3005308C1
:100F4000CD0002308531242508007608F1007508AF
:100F5000F0007708F8007808F2000030853192251B
:100F6000080080302C0099003E30980040309700F7
:100F7000CF3025009E0508002400951A0800940132
:100F80000830950096014F30920095160800200019
:100F90002E082F04031908002F088A002E080A00C3
:100FA00087310800783021009900980122009601CD
:100FB00021001A1B0800D82F240094010830950046
:100FC00096014F3092009512080020004C08210035
:100FD000E60020004B082100E500080020004C0836
:100FE0002100E40020004B082100E300080020005D
:100FF0004C082100E00020004B082100DF00080021
:101E860008000800013008008631A4260800240056
:101E9600961408002400161508002400961508005C
:101EA6002400110808002000901508002000901159
:101EB60008008431D5240800200090110800240071
:101EC600951208002100901108002400161408003D
:101ED60021009015080023001D121D16080024007D
:101EE60096161616080024009612161608008F314C
:101EF6004A27013008008F314A27023008008F3107
:101F06004A27013008008F314D27003008008F31F5
:101F16007627053008008F3172270A3008008F3186
:101F2600722709300800013086316D26080000301E
:101F360086316D260800F000700824009100080024
:101F46002100BC10BB010E3008002100BC10BB01F3
:101F56000E300800553480340134213426342400F0
:101F6600160E890C890C0139080021003C108F31AE
:101F76005027043008002000970196012130980070
:101F8600080020004C08B1004B08B00008002000F3
:101F96004C08AF004B08AE00080064008001013118
:101FA600890BD12F003421003C1436358F319E2702
:101FB6000330080021003C140314360D8F319E2790
:101FC60005300800013021009D0060309E009F0111
:101FD6009B019C01080020004C082100DE00200027
:101FE6004B082100DD00080020004C082100E2001B
:0A1FF60020004B082100E100080064
:020000040001F9
:06000E00FC3FFF3F9F3F95
:00000001FF
