:0400000080313028F3
:100008007E14803120007F08F7000B1F2B28210069
:10001800911D17282000911D17287D088A007C084B
:100028000A0080312B282100901D23282000901DD4
:1000380023287D088A007C080A0080312B282100AB
:10004800901C2B282000901C2B2882311E22770818
:100058002000FF007E10090080313228F801F901E4
:10006800FA01FB01FC01FD0120308400003085000D
:1000780026308231D0227E1020008331092B823134
:10008800F4228031003A031D53286F288331252339
:100098000800833121230800833119230800200038
:1000A8002F08F1007108C7000630203E860087013E
:1000B800413F8A00403F0A008031013A0319502825
:1000C800033A03194A28013A03194D28073A031934
:1000D80050285028080020003C101730203E860089
:1000E8008701403F84008501810A00088331042389
:1000F800803101302000B8020030B93B380839049B
:10010800031D8828063089280330F2000030F300E8
:100118007208080022008C018D018E013730210001
:100128008C0070308D00DF308E00CF3023008E00C1
:1001380080308D0017308C0024008D018C018E01D9
:100148002100951725008C018D018E01373026007E
:100158008C00F0308D00FF308E003F3027008C007F
:10016800F0308D00FF308E000D303C00A4000C30C4
:10017800A10010303D009E0012309F0011309C00FD
:100188000E30A5000E303C00A000080083313A2351
:100198008031F00020003708860087017008810050
:1001A8000130F0007008B7070130B8020030B93BE1
:1001B800380839040319E428833129230530080055
:1001C800BC15EC2883310D23080083311123080066
:1001D80020002C08F0007008C70021088A002008B9
:1001E8000A008031013A0319E928033A0319E6287D
:1001F800013A0319E628073A0319E928E92808000B
:1002080083313423813120003C1C15298231F422AA
:100218008131003A031915290F30F40074082000C1
:10022800BA0020003A08F400F501F435F50DBC30A9
:10023800740784008130753D8500013F8A00003FC6
:100248000A008131F60076082000BA00080008305C
:1002580023009F0090309D0024309E0040309B007A
:1002680003309C0000302000C6000030C7008231F7
:10027800E222813100302000C6000030C700823100
:10028800DC22813100302000C6000030C7008231F6
:10029800E8222000C50108002000BC155D29833133
:1002A8001D230800833137230330080083311923C5
:1002B800080020002C08F0007008C70021088A00F8
:1002C80020080A008131013A03195A29033A03190F
:1002D8005329013A03195329073A031956295A2968
:1002E8000800F4007008710403198B297435203E46
:1002F800860087017008C03F7108C13F7208F3008B
:1003080074082C3E86008701730881000800743544
:10031800203E860087014830C03F0330C13F740843
:100328002C3E860087018101080020003C10023025
:10033800F0007008BB00A62983311D230800833113
:100348001923080020002E08F0007008C7000430A8
:10035800203E86008701413F8A00403F0A008131E4
:10036800023A0319A029013A0319A029A329080070
:10037800FF340234C1340234C93402344334003403
:10038800CA340034EE340234503401342534033492
:10039800213403341D34033419340334153403343D
:1003A800113403340D340334FA34023499340134EB
:1003B8002000470886008701403FF000413FF100D8
:1003C8004708023E86008701010882317422813184
:1003D8000030F500F600F701823182220230080071
:1003E8008231AF22813180318E2081318231A52244
:1003F80081318231B822813182318F22813182313B
:100408000922813181312B21080020009E019D01A4
:100418009F017C309B009A019010210090144A3073
:100428002000C6000330C7008231D622E030200009
:100438009C000800200090100130FA070030FB3DB6
:1004480000307B02053003197A02031C0800823150
:100458009A22FA01FB0108000130F0000030F10097
:10046800200047088231742282310030F500F600FE
:10047800F70182318222043008000230F000003097
:10048800F100200047088231742282310030F500E3
:10049800F600F70182318222023008000130F000B4
:1004A8000030F10020004708823174228231003088
:1004B800F500F600F701823182220230080002308E
:1004C800F0000030F10020004708823174228231A8
:1004D8000030F500F600F70182318222043008006E
:1004E800F3002000BC1D08007308F2007208B70072
:1004F8007108B9007008B800BC1108007608F1004E
:100508007508F00077082000C6004608F2000030A1
:1005180081317521080080302C0099003E30980008
:1005280040309700CF3025009E05080020003D0888
:100538003E04031908003E088A003D080A0082317B
:1005480008007830210099009801220096012100C6
:100558001A1B0800AB2A2400940108309500960164
:100568004F30920095120800013021009D00603044
:100578009E009F019B019C01080020003C1403146D
:10058800360D833104230530080020003C1436352D
:100598008331042303300800640080010131890B92
:1005A800D12A003420004708BE004608BD000800D4
:1005B80020004708C2004608C1000800200047087C
:1005C800C4004608C300080020004708C0004608C9
:1005D800BF00080020003C1083313D230430080090
:1005E8002400160E890C890C013908002000BC1063
:1005F800BB010E3008002000BC10BB010E30080003
:10060800F00070082400910008008131F421833142
:100618000C2B83312D230930080083312D230A3018
:100628000800833129230530080083314023003036
:10063800080083314323013008008331432302300B
:10064800080083314323013008002400961216164F
:1006580008002400961616160800813104210800A7
:1006680020009011080020009015080024001108AF
:100678000800240096150800240016150800240018
:0E068800961408000530080001300800080034
:020000040001F9
:06000E00FC3FFF3F9F3F95
:00000001FF
